:020000040800F2
:1000000000500020CD5B0008215C00082D5C00083A
:10001000355C00083D5C0008455C000800000000FD
:100020000000000000000000000000004D5C00081F
:10003000595C000800000000655C0008715C000865
:100040001D5C00081D5C00081D5C00081D5C0008AC
:100050001D5C00081D5C00081D5C00081D5C00089C
:100060001D5C00081D5C00081D5C00081D5C00088C
:100070001D5C00081D5C00081D5C00081D5C00087C
:100080001D5C00081D5C00081D5C00081D5C00086C
:100090001D5C00081D5C00081D5C00081D5C00085C
:1000A0001D5C00081D5C00081D5C00081D5C00084C
:1000B000592800081D5C00081D5C00081D5C000834
:1000C0001D5C00081D5C00081D5C00081D5C00082C
:1000D0001D5C00081D5C00081D5C00081D5C00081C
:1000E0001D5C00081D5C00081D5C0008000000008D
:1000F0000000000000000000000000000000000000
:0C01000000000000000000005FF808F1A3
:1001100010B5054C237833B9044B13B10448AFF341
:1001200000800123237010BD80000020000000002B
:100130003C72000808B5034B1BB103490348AFF3F9
:10014000008008BD00000000840000203C72000810
:1001500010F8012B11F8013B012A28BF9A42F7D071
:10016000D01A7047034613F8012B002AFBD1181A46
:100170000138704781F0004102E000BF83F0004386
:1001800030B54FEA41044FEA430594EA050F08BF32
:1001900090EA020F1FBF54EA000C55EA020C7FEAF6
:1001A000645C7FEA655C00F0E2804FEA5454D4EB73
:1001B0005555B8BF6D420CDD2C4480EA020281EA3D
:1001C000030382EA000083EA010180EA020281EA75
:1001D0000303362D88BF30BD11F0004F4FEA0131C7
:1001E0004FF4801C4CEA113102D0404261EB4101D6
:1001F00013F0004F4FEA03334CEA133302D052425C
:1002000063EB430394EA050F00F0A780A4F1010417
:10021000D5F1200E0DDB02FA0EFC22FA05F2801851
:1002200041F1000103FA0EF2801843FA05F3594137
:100230000EE0A5F120050EF1200E012A03FA0EFCB6
:1002400028BF4CF0020C43FA05F3C01851EBE371E0
:1002500001F0004507D54FF0000EDCF1000C7EEBFD
:1002600000006EEB0101B1F5801F1BD3B1F5001F3B
:100270000CD349085FEA30004FEA3C0C04F101045A
:100280004FEA445212F5800F80F09A80BCF1004F83
:1002900008BF5FEA500C50F1000041EB045141EA05
:1002A000050130BD5FEA4C0C404141EB010111F406
:1002B000801FA4F10104E9D191F0000F04BF0146B1
:1002C0000020B1FA81F308BF2033A3F10B03B3F18F
:1002D00020020CDA0C3208DD02F1140CC2F10C021F
:1002E00001FA0CF021FA02F10CE002F11402D8BF7D
:1002F000C2F1200C01FA02F120FA0CFCDCBF41EA49
:100300000C019040E41AA2BF01EB0451294330BD17
:100310006FEA04041F3C1CDA0C340EDC04F11404F4
:10032000C4F1200220FA04F001FA02F340EA0300CB
:1003300021FA04F345EA030130BDC4F10C04C4F111
:10034000200220FA02F001FA04F340EA03002946F1
:1003500030BD21FA04F0294630BD94F0000F83F43B
:10036000801306BF81F480110134013D4EE77FEA1E
:10037000645C18BF7FEA655C29D094EA050F08BF6A
:1003800090EA020F05D054EA000C04BF194610464B
:1003900030BD91EA030F1EBF0021002030BD5FEA8F
:1003A000545C05D14000494128BF41F0004130BDB7
:1003B00014F580043CBF01F5801130BD01F000450B
:1003C00045F0FE4141F470014FF0000030BD7FEA7E
:1003D000645C1ABF194610467FEA655C1CBF0B4679
:1003E000024650EA013406BF52EA033591EA030F90
:1003F00041F4002130BD00BF90F0000F04BF002188
:10040000704730B54FF4806404F132044FF00005BA
:100410004FF0000150E700BF90F0000F04BF002133
:10042000704730B54FF4806404F1320410F0004599
:1004300048BF40424FF000013EE700BF42004FEA94
:10044000E2014FEA31014FEA02701FBF12F07F4311
:1004500093F07F4F81F06051704792F0000F14BF0E
:1004600093F07F4F704730B54FF4607401F0004552
:1004700021F0004120E700BF50EA010208BF7047A9
:1004800030B54FF000050AE050EA010208BF70479E
:1004900030B511F0004502D5404261EB41014FF407
:1004A000806404F132045FEA915C3FF4DCAE4FF00B
:1004B00003025FEADC0C18BF03325FEADC0C18BFF2
:1004C000033202EBDC02C2F1200300FA03FC20FA43
:1004D00002F001FA03FE40EA0E0021FA02F1144490
:1004E000C1E600BF70B54FF0FF0C4CF4E06C1CEAA5
:1004F00011541DBF1CEA135594EA0C0F95EA0C0F1A
:1005000000F0DEF82C4481EA030621EA4C5123EA8C
:100510004C5350EA013518BF52EA033541F48011BB
:1005200043F4801338D0A0FB02CE4FF00005E1FB6E
:1005300002E506F00042E0FB03E54FF00006E1FBB8
:1005400003569CF0000F18BF4EF0010EA4F1FF04FB
:10055000B6F5007F64F5407404D25FEA4E0E6D413B
:1005600046EB060642EAC62141EA55514FEAC5204C
:1005700040EA5E504FEACE2EB4F1FD0C88BFBCF5C8
:10058000E06F1ED8BEF1004F08BF5FEA500E50F179
:10059000000041EB045170BD06F0004646EA01013F
:1005A00040EA020081EA0301B4EB5C04C2BFD4EB71
:1005B0000C0541EA045170BD41F480114FF0000E6A
:1005C000013C00F3AB8014F1360FDEBF002001F0D8
:1005D000004170BDC4F10004203C35DA0C341BDC52
:1005E00004F11404C4F1200500FA05F320FA04F024
:1005F00001FA05F240EA020001F0004221F0004158
:1006000010EBD37021FA04F642EB06015EEA430ECA
:1006100008BF20EAD37070BDC4F10C04C4F12005FA
:1006200000FA04F320FA05F001FA04F240EA0200AD
:1006300001F0004110EBD37041F100015EEA430E7E
:1006400008BF20EAD37070BDC4F1200500FA05F29E
:100650004EEA020E20FA04F301FA05F243EA02031D
:1006600021FA04F001F0004121FA04F220EA02002C
:1006700000EBD3705EEA430E08BF20EAD37070BD72
:1006800094F0000F0FD101F00046400041EB010152
:1006900011F4801F08BF013CF7D041EA060195F034
:1006A000000F18BF704703F00046520043EB0303EE
:1006B00013F4801F08BF013DF7D043EA06037047DB
:1006C00094EA0C0F0CEA135518BF95EA0C0F0CD0E6
:1006D00050EA410618BF52EA4306D1D181EA03012C
:1006E00001F000414FF0000070BD50EA410606BF26
:1006F0001046194652EA430619D094EA0C0F02D16B
:1007000050EA013613D195EA0C0F05D152EA0336AF
:100710001CBF104619460AD181EA030101F00041CD
:1007200041F0FE4141F470014FF0000070BD41F016
:10073000FE4141F4780170BD70B54FF0FF0C4CF4F0
:10074000E06C1CEA11541DBF1CEA135594EA0C0F0F
:1007500095EA0C0F00F0A7F8A4EB050481EA030E5C
:1007600052EA03354FEA013100F088804FEA033343
:100770004FF0805545EA131343EA12634FEA022211
:1007800045EA111545EA10654FEA00260EF00041D2
:100790009D4208BF964244F1FD0404F5407402D224
:1007A0005B084FEA3202B61A65EB03055B084FEAB5
:1007B00032024FF480104FF4002CB6EB020E75EBB2
:1007C000030E22BFB61A754640EA0C005B084FEADA
:1007D0003202B6EB020E75EB030E22BFB61A754657
:1007E00040EA5C005B084FEA3202B6EB020E75EBA2
:1007F000030E22BFB61A754640EA9C005B084FEA1A
:100800003202B6EB020E75EB030E22BFB61A754626
:1008100040EADC0055EA060E18D04FEA051545EA15
:1008200016754FEA06164FEAC30343EA52734FEABE
:10083000C2025FEA1C1CC0D111F4801F0BD141EA37
:1008400000014FF000004FF0004CB6E711F4801F9C
:1008500004BF01430020B4F1FD0C88BFBCF5E06F7C
:100860003FF6AFAEB5EB030C04BFB6EB020C5FEA8C
:10087000500C50F1000041EB045170BD0EF0004EE1
:100880004EEA113114EB5C04C2BFD4EB0C0541EA13
:10089000045170BD41F480114FF0000E013C90E610
:1008A00045EA060E8DE60CEA135594EA0C0F08BFD4
:1008B00095EA0C0F3FF43BAF94EA0C0F0AD150EAD3
:1008C00001347FF434AF95EA0C0F7FF425AF104666
:1008D00019462CE795EA0C0F06D152EA03353FF48E
:1008E000FDAE1046194622E750EA410618BF52EA0B
:1008F00043067FF4C5AE50EA41047FF40DAF52EADF
:1009000043057FF4EBAE12E74FF0FF3C06E000BF7B
:100910004FF0010C02E000BF4FF0010C4DF804CD88
:100920004FEA410C7FEA6C5C4FEA430C18BF7FEA48
:100930006C5C1BD001B050EA410C0CBF52EA430C76
:1009400091EA030F02BF90EA020F0020704710F1F6
:10095000000F91EA030F58BF994208BF90422CBF85
:10096000D8176FEAE37040F0010070474FEA410C7E
:100970007FEA6C5C02D150EA013C07D14FEA430C9C
:100980007FEA6C5CD6D152EA033CD3D05DF8040B0D
:10099000704700BF8446104662468C46194663463F
:1009A00000E000BF01B5FFF7B7FF002848BF10F116
:1009B000000F01BD4DF808EDFFF7F4FF0CBF01205B
:1009C00000205DF808FB00BF4DF808EDFFF7EAFFD7
:1009D00034BF012000205DF808FB00BF4DF808ED92
:1009E000FFF7E0FF94BF012000205DF808FB00BF87
:1009F0004DF808EDFFF7CEFF94BF012000205DF811
:100A000008FB00BF4DF808EDFFF7C4FF34BF01201D
:100A100000205DF808FB00BF4FEA410C7FEA6C5CE8
:100A200002D150EA013C0AD14FEA430C7FEA6C5CE8
:100A300002D152EA033C02D14FF0000070474FF060
:100A4000010070474FEA4102B2F1E04324BFB3F521
:100A5000001CDCF1FE5C0DD901F0004C4FEAC00235
:100A60004CEA5070B2F1004F40EB830008BF20F019
:100A70000100704711F0804F21D113F13872BCBFD3
:100A800001F00040704741F480114FEA5252C2F128
:100A90001802C2F1200C10FA0CF320FA02F018BF71
:100AA00040F001004FEAC1234FEAD32303FA0CFCC4
:100AB00040EA0C0023FA02F34FEA4303CCE77FEA53
:100AC000625307D150EA01331EBF4FF0FE4040F49D
:100AD0004000704701F0004040F0FE4040F400004C
:100AE000704700BF80F0004002E000BF81F000418D
:100AF00042001FBF5FEA410392EA030F7FEA226CC4
:100B00007FEA236C6AD04FEA1262D2EB1363C1BF53
:100B1000D218414048404140B8BF5B42192B88BFC2
:100B2000704710F0004F40F4000020F07F4018BFE5
:100B3000404211F0004F41F4000121F07F4118BF05
:100B4000494292EA030F3FD0A2F1010241FA03FCAD
:100B500010EB0C00C3F1200301FA03F100F0004395
:100B600002D5494260EB4000B0F5000F13D3B0F15D
:100B7000807F06D340084FEA310102F10102FE2ACC
:100B800051D2B1F1004F40EBC25008BF20F001003C
:100B900040EA03007047490040EB000010F4000FEA
:100BA000A2F10102EDD1B0FA80FCACF1080CB2EB7D
:100BB0000C0200FA0CF0AABF00EBC25052421843DC
:100BC000BCBFD0401843704792F0000F81F4000181
:100BD00006BF80F400000132013BB5E74FEA410354
:100BE0007FEA226C18BF7FEA236C21D092EA030FC0
:100BF00004D092F0000F08BF0846704790EA010F3A
:100C00001CBF0020704712F07F4F04D1400028BF66
:100C100040F00040704712F100723CBF00F5000048
:100C2000704700F0004343F0FE4040F4000070477E
:100C30007FEA226216BF08467FEA2363014642022A
:100C400006BF5FEA412390EA010F40F4800070473D
:100C50004FF0000304E000BF10F0004348BF4042E3
:100C60005FEA000C08BF704743F0964301464FF01F
:100C700000001CE050EA010208BF70474FF000037B
:100C80000AE000BF50EA010208BF704711F00043BC
:100C900002D5404261EB41015FEA010C02BF84468C
:100CA0000146002043F0B64308BFA3F18053A3F5EB
:100CB0000003BCFA8CF2083AA3EBC25310DB01FA32
:100CC00002FC634400FA02FCC2F12002BCF1004FB6
:100CD00020FA02F243EB020008BF20F00100704747
:100CE00002F1200201FA02FCC2F1200250EA4C009B
:100CF00021FA02F243EB020008BF20EADC707047E1
:100D00004FF0FF0C1CEAD0521EBF1CEAD15392EAEE
:100D10000C0F93EA0C0F6FD01A4480EA010C4002CA
:100D200018BF5FEA41211ED04FF0006343EA501024
:100D300043EA5111A0FB01310CF00040B1F5000F66
:100D40003EBF490041EAD3715B0040EA010062F115
:100D50007F02FD2A1DD8B3F1004F40EBC25008BFFF
:100D600020F00100704790F0000F0CF0004C08BF1D
:100D700049024CEA502040EA51207F3AC2BFD2F1EA
:100D8000FF0340EAC250704740F400004FF00003F8
:100D9000013A5DDC12F1190FDCBF00F00040704732
:100DA000C2F10002410021FA02F1C2F1200200FA70
:100DB00002FC5FEA310040F1000053EA4C0308BF37
:100DC00020EADC70704792F0000F00F0004C02BF88
:100DD000400010F4000F013AF9D040EA0C0093F003
:100DE000000F01F0004C02BF490011F4000F013B5D
:100DF000F9D041EA0C018FE70CEAD15392EA0C0FCB
:100E000018BF93EA0C0F0AD030F0004C18BF31F035
:100E1000004CD8D180EA010000F00040704790F00B
:100E2000000F17BF90F0004F084691F0000F91F0AF
:100E3000004F14D092EA0C0F01D142020FD193EA75
:100E40000C0F03D14B0218BF084608D180EA0100FD
:100E500000F0004040F0FE4040F40000704740F0D9
:100E6000FE4040F4400070474FF0FF0C1CEAD052A7
:100E70001EBF1CEAD15392EA0C0F93EA0C0F69D003
:100E8000A2EB030280EA010C49024FEA402037D06E
:100E90004FF0805343EA111143EA10130CF0004065
:100EA0008B4238BF5B0042F17D024FF4000C8B4255
:100EB00024BF5B1A40EA0C00B3EB510F24BFA3EB35
:100EC000510340EA5C00B3EB910F24BFA3EB910305
:100ED00040EA9C00B3EBD10F24BFA3EBD10340EA5F
:100EE000DC001B0118BF5FEA1C1CE0D1FD2A3FF6A5
:100EF00050AF8B4240EBC25008BF20F0010070475A
:100F00000CF0004C4CEA50207F32C2BFD2F1FF03FC
:100F100040EAC250704740F400004FF00003013A2D
:100F200037E792F0000F00F0004C02BF400010F4D1
:100F3000000F013AF9D040EA0C0093F0000F01F0E5
:100F4000004C02BF490011F4000F013BF9D041EA07
:100F50000C0195E70CEAD15392EA0C0F08D142023A
:100F60007FF47DAF93EA0C0F7FF470AF084676E70D
:100F700093EA0C0F04D14B023FF44CAF08466EE7E6
:100F800030F0004C18BF31F0004CCAD130F00042B4
:100F90007FF45CAF31F000437FF43CAF5FE700BF0C
:100FA0004FF0FF3C06E000BF4FF0010C02E000BF35
:100FB0004FF0010C4DF804CD4FEA40024FEA4103D7
:100FC0007FEA226C18BF7FEA236C11D001B052EA8D
:100FD000530C18BF90EA010F58BFB2EB030088BF53
:100FE000C81738BF6FEAE17018BF40F001007047C2
:100FF0007FEA226C02D15FEA402C05D17FEA236CA4
:10100000E4D15FEA412CE1D05DF8040B704700BFEA
:10101000844608466146FFE70FB5FFF7C9FF002881
:1010200048BF10F1000F0FBD4DF808EDFFF7F4FFBA
:101030000CBF012000205DF808FB00BF4DF808ED53
:10104000FFF7EAFF34BF012000205DF808FB00BF76
:101050004DF808EDFFF7E0FF94BF012000205DF898
:1010600008FB00BF4DF808EDFFF7D2FF94BF012049
:1010700000205DF808FB00BF4DF808EDFFF7C8FF42
:1010800034BF012000205DF808FB00BF4FEA40029A
:10109000B2F1FE4F0FD34FF09E03B3EB12620DD9A6
:1010A0004FEA002343F0004310F0004F23FA02F010
:1010B00018BF404270474FF00000704712F1610FB7
:1010C00001D1420205D110F0004008BF6FF000408E
:1010D00070474FF00000704742000ED2B2F1FE4F51
:1010E0000BD34FF09E03B3EB126209D44FEA0023F7
:1010F00043F0004323FA02F070474FF000007047BE
:1011000012F1610F01D1420202D14FF0FF3070475E
:101110004FF00000704700BF80B582B000AF78602C
:10112000084611461A460346FB700B46BB70134631
:101130007B7000BF4FF40031786804F027FB034652
:10114000002BF7D10121786804F074FA0121786846
:1011500004F030FA00BF1F49786804F017FB03461B
:10116000002BF8D0FB7800221946786804F0A0FA2A
:1011700000BF1949786804F0D9FA0346002BF8D06B
:10118000BB781946786804F075FA00BF134978688F
:1011900004F0CCFA0346002BF8D07B781946786827
:1011A00004F068FA00BF0D49786804F0BFFA0346FE
:1011B000002BF8D00121786804F01CFA00BF084920
:1011C000786804F0E3FA0346002BF8D100BF083733
:1011D000BD4680BD010000108200070084000700AA
:1011E0001000001080B584B000AF78600B46FB7033
:1011F0001346BB700023FB7300BF4FF400317868C7
:1012000004F0C4FA0346002BF7D10121786804F0FA
:10121000D1F900BF3349786804F0B8FA0346002BCF
:10122000F8D0FB7800221946786804F041FA00BF34
:101230002D49786804F07AFA0346002BF8D0BB7881
:101240001946786804F016FA00BF2849786804F057
:101250006DFA0346002BF8D00121786804F0AAF952
:1012600000BF2049786804F091FA0346002BF8D0BB
:10127000FB7801221946786804F01AFA00BF1C496D
:10128000786804F053FA0346002BF8D000BF1949E0
:10129000786804F04BFA0346002BF8D0786804F025
:1012A000F9F90346FB734FF2FF71786804F01EFAF8
:1012B0000021786804F0BEF90121786804F09AF9F9
:1012C00000BF0D49786804F061FA0346002BF8D19D
:1012D0000021786804F0AEF9FB7B18461037BD4654
:1012E00080BD00BF010000108200070084000700DD
:1012F00002000300400003001000001080B483B01F
:1013000000AF0346FB71084997F907305B09FA798A
:1013100002F01F02012000FA02F241F8232000BF70
:101320000C37BD4680BC704700E100E080B584B05A
:1013300000AF022003F01EF8022002F0F7FF0320A6
:1013400003F046F8042003F06DF80121012003F0BA
:1013500065F94FF4006003F08FFA012003F0A6FA5C
:101360004FF4001003F0A2FA4FF4804003F084FA27
:10137000082003F081FA042003F07EFA012003F034
:101380007BFA664A654B5B6843F002035360634A2D
:10139000624B5B6843F0040353600121022003F0B9
:1013A000B1FA0121032003F0ADFA5D4B4EF6602245
:1013B0009A8504220121012003F082FB4FF0804333
:1013C00044F250621A854FF080434FF47A729A8546
:1013D0001C20FFF793FF4FF4807002F08FFC02F0A7
:1013E000E1FC0921012003F07BFA0A21012003F02E
:1013F00077FA022303220621022001F08BFF022349
:1014000003220821022001F085FF02230322092183
:10141000022001F07FFF4FF496533B600023BB8115
:101420000C237B8100233B810023FB800023BB80B6
:101430003B4619463B4804F09BFA0121394804F029
:1014400051FB0121384804F095F8384B4FF4806285
:101450005A81364B4FF480429A81344B344A1A6099
:10146000324B4BF6FF72DA80304B00229A802F4BC2
:1014700000221A812D492C4803F0BAFF01212A4885
:1014800004F078F82B4B00221A702A4B02225A7073
:10149000284B07229A70274B0122DA70254B06222F
:1014A0001A71244B01225A71224B05229A71214B49
:1014B0000122DA711F4B04221A721E4B01225A724A
:1014C0001C4B03229A721B4B0122DA72194B022227
:1014D0001A73184B01225A73164B01229A73154B3B
:1014E0000122DA73134B01225A75124B02221A752C
:1014F000104B0B225A740F4B02221A740D4B0A2206
:10150000DA740C4B02229A740A4802F071FC01F062
:1015100019F800BF1037BD4680BD00BF0000014074
:10152000002C01400038014000540040AC00002075
:1015300070110100BC00002080B582B000AF002314
:10154000FB712049204800F0E3FE20491E4800F0CE
:10155000DFFE1F491C4800F0DBFE1E491A4800F060
:10156000D7FE1D49184800F0D3FE1C49164800F06C
:10157000CFFE02F017FC144800F0B2FE0346FB71E8
:10158000FB79312B04D102F00DFC00F029F814E0B6
:10159000FB79322B04D102F005FC00F075F80CE069
:1015A000FB79332B04D102F0FDFB00F015F904E0C8
:1015B000FB79342B01D102F0F5FB00BF0837BD46A3
:1015C00080BD00BF58720008003801408C720008CE
:1015D000A8720008BC720008D4720008EC720008FF
:1015E00080B582B000AF1F491F4800F091FE1F492F
:1015F0001D4800F08DFE1E491B4800F089FE1D4964
:10160000194800F085FE1C49174800F081FE1B496F
:10161000154800F07DFE1A49134800F079FE0023BA
:10162000FB713B462E2219460F4800F093FE3B46C5
:10163000184604F0DDFB0346FB71FB79062B0AD844
:10164000FB790922A0210F48FFF766FD0C2001F06D
:10165000E9F802F0A7FB00F0A3FE00BF0837BD4683
:1016600080BD00BF007300080038014014730008FB
:10167000207300082C7300083873000844730008B6
:101680005C7300080054004080B582B000AF484948
:10169000484800F03DFE3B1D2E221946454800F00B
:1016A00059FE3B1D184604F0A3FB0346DAB2424B39
:1016B0009A7102F077FB41493E4800F029FE3B1D3C
:1016C0002E2219463B4800F045FE3B1D184604F00B
:1016D0008FFB0346DAB2384B5A7102F063FB38488D
:1016E00003F0CCFC3B1D2E221946324800F032FE9E
:1016F0003B1D184604F07CFB0346DAB22E4B1A71F0
:1017000002F050FB2F4803F0B9FC3B1D2E22194676
:10171000284800F01FFE3B1D184604F069FB0346F5
:10172000DAB2254BDA7002F03DFB274803F0A6FC45
:101730003B1D2E2219461F4800F00CFE3B1D18468B
:1017400004F056FB0346DAB21B4B9A7002F02AFBF8
:101750001E4803F093FC3B1D2E221946154800F04D
:10176000F9FD3B1D184604F043FB0346DAB2124B69
:101770005A7002F017FB164803F080FC3B1D2E2226
:1017800019460C4800F0E6FD3B1D184604F030FBFE
:101790000346DAB2084B1A7002F004FB06490D4802
:1017A00001F034F902F0FEFA00BF0837BD4680BDF3
:1017B0006873000800380140500100208073000861
:1017C00098730008B0730008C4730008DC73000845
:1017D000F47300080054004090B585B000AF4A494A
:1017E0004A4800F095FD4A49484800F091FD4949B2
:1017F000464800F08DFD454800F072FD0346312B50
:101800007DD102F0CFFA0A22A0214348FFF7EAFC7B
:101810000346FB730023BB73FB7B184604F02CFBD1
:1018200004F052FB02463D4B82FB03341319D911DD
:10183000D317C91A0B461B025B1AD11A0B46BB738E
:10184000BA7BFB7B9A42E7D0BB7B0A22A0213248BD
:10185000FFF762FC0C2000F0E5FF31492E4801F053
:1018600087F92F4B9B790522A0212B48FFF754FCC9
:101870000C2000F0D7FF2A4B5B790622A0212648D6
:10188000FFF74AFC0C2000F0CDFF254BDB78072248
:10189000A0212148FFF740FC0C2000F0C3FF204BA3
:1018A0009B780822A0211C48FFF736FC0C2000F092
:1018B000B9FF01230B22A0211748FFF72DFC194B7C
:1018C00001221A700C2000F0ADFF02F06BFA3B1DF4
:1018D0001946134800F0E0FB3A79134B1A707A79F5
:1018E000114B5A70BA79104B9A70FA790E4BDA7024
:1018F0003A7A0D4B1A710C49074801F033FA00BFD0
:101900001437BD4690BD00BF0C740008003801407C
:1019100030740008387400080054004081808080D2
:10192000F80000209C000020D400002080B584B086
:1019300000AFF860B9607A60FB70FB78013B042B64
:1019400028D801A252F823F05D1900086B1900088D
:1019500075190008811900088B190008B968F86822
:1019600000F01CF802F01EFA14E000F05BF802F040
:1019700019FA0FE0786800F009F902F013FA09E0AB
:1019800000F0BCF902F00EFA04E000F085FA02F073
:1019900009FA00BF00BF1037BD4680BD80B586B0D4
:1019A00000AF786039607B681B6807F11001022284
:1019B000184600F0D9FF3B681B6807F108010222B6
:1019C000184600F0D1FF144802F01AFB124802F04A
:1019D00023FB1149114802F0F3FA07F110030E49F5
:1019E000184602F0EDFA0C4A0221002002F020FB1A
:1019F00009490B4802F0E4FA07F1080306491846C2
:101A000002F0DEFA0449252002F0A0FA02F0CAF939
:101A100000BF1837BD4680BDBC00002040740008E0
:101A20004874000880B588B000AF514802F0E8FA69
:101A30004F4802F0F1FA4E494E4802F0C1FA4E49C1
:101A40004E4801F095F84C4B9B79184607F114036A
:101A50000A22194604F00DFA07F114023B1D114643
:101A6000184604F06BFA3B1D1846FEF77BFB034655
:101A70001A463B1D134442491A460B461B881380E5
:101A80003D4B5B79184607F114030A22194604F00E
:101A9000F0F907F114023B1D1146184604F04EFA06
:101AA0003B1D1846FEF75EFB03461A463B1D1344DA
:101AB00033491A460B461B8813802F4B1B79184657
:101AC00007F114030A22194604F0D3F907F11402AE
:101AD0003B1D1146184604F031FA3B1D1846FEF72F
:101AE00041FB03461A463B1D134426491A460B4642
:101AF0001B881380204B9B78184607F114030A2299
:101B0000194604F0B6F907F114023B1D11461846B8
:101B100004F014FA3B1D1846FEF724FB03461A4650
:101B20003B1D134418491A460B461B881380124B61
:101B30005B78184607F114030A22194604F099F954
:101B400007F114023B1D1146184604F0F7F9084A44
:101B50000221002002F06CFA3B1D0549184602F0F4
:101B60002FFA02F01FF900BF2037BD4680BD00BF2D
:101B7000BC00002050740008F00000200054004019
:101B80005C740008607400086474000880B58AB052
:101B900000AF7860544802F033FA534802F03CFA40
:101BA0005149524802F00CFA7B689B79184607F1BC
:101BB0000C030A22194604F05CF907F10C0207F144
:101BC00018031146184604F0B9F907F1180318462E
:101BD000FEF7C8FA03461A4607F1180313444449AE
:101BE0001A460B461B8813807B685B79184607F101
:101BF0000C030A22194604F03CF907F10C0207F124
:101C000018031146184604F099F907F1180318460D
:101C1000FEF7A8FA03461A4607F11803134434499D
:101C20001A460B461B8813807B681B79184607F100
:101C30000C030A22194604F01CF907F10C0207F103
:101C400018031146184604F079F907F118031846ED
:101C5000FEF788FA03461A4607F11803134425498C
:101C60001A460B461B8813807B689B78184607F141
:101C70000C030A22194604F0FCF807F10C0207F1E4
:101C800018031146184604F059F907F118031846CD
:101C9000FEF768FA03461A4607F11803134416497B
:101CA0001A460B461B8813807B685B78184607F141
:101CB0000C030A22194604F0DCF807F10C0207F1C4
:101CC00018031146184604F039F9074A022100208A
:101CD00002F0AEF907F118030349184602F070F953
:101CE00000BF2837BD4680BDBC00002068740008D6
:101CF0005C740008607400086474000880B58AB0E1
:101D000000AF5E4A07F11C03106818609188927951
:101D100099809A7101237B620AE007F11C0207F1A6
:101D20001C031146184600F0B7F97B6A01337B6249
:101D3000534BDB7A1A467B6A9A42EEDA514802F03C
:101D40005FF9504802F068F94E494F4802F038F9FF
:101D500097F8223018463B460A22194604F089F8C3
:101D60003A4607F10C031146184604F0E7F807F16C
:101D70000C031846FEF7F6F903461A4607F10C0362
:101D8000134442491A460B461B88138097F82130AA
:101D900018463B460A22194604F06BF83A4607F10A
:101DA0000C031146184604F0C9F807F10C03184655
:101DB000FEF7D8F903461A4607F10C0313443349DA
:101DC0001A460B461B88138097F8203018463B466E
:101DD0000A22194604F04DF83A4607F10C03114661
:101DE000184604F0ABF807F10C031846FEF7BAF9F1
:101DF00003461A4607F10C03134425491A460B46BD
:101E00001B881380BB7F18463B460A22194604F004
:101E100030F83A4607F10C031146184604F08EF8E4
:101E200007F10C031846FEF79DF903461A4607F121
:101E30000C03134417491A460B461B8813807B7FFB
:101E400018463B460A22194604F013F83A4607F1B1
:101E50000C031146184604F071F80A4A02210020CA
:101E600002F0E6F807F10C030649184602F0A8F85C
:101E700001F098FF00BF2837BD4680BDF800002064
:101E800020010020BC0000207C7400085C74000865
:101E9000607400086474000880B500AF174802F051
:101EA000AFF8164802F0B8F81449154802F088F85F
:101EB000124A0221002002F0BBF8124B1B78184690
:101EC00000F0D0F90346002B04D10C490E4802F073
:101ED00077F810E00B4B1B78012B0CBF012300237C
:101EE000DBB2184600F0BEF90346002B03D00349CD
:101EF000064802F065F800BF80BD00BFBC000020AE
:101F00008C7400089C0000209C740008A4740008D5
:101F100080B584B000AF786039607B681A682E4B5A
:101F20001B6819461046FEF7E1FD03462B4918468B
:101F3000FEF7E6FE0346FB603B681B78184600F0A0
:101F400091F90346002B02D0012B20D03FE07B68A3
:101F50001A68214B1B6819461046FFF78DF8034697
:101F6000002B00D133E04FF07F51F868FFF77AF88B
:101F70000346002B00D12AE01949F868FEF7B8FDA6
:101F800003461A460221174802F068FF1FE07B68EB
:101F90001A68114B5B6819461046FFF76DF8034647
:101FA000002B00D112E04FF07F51F868FFF75AF88C
:101FB0000346002B00D109E00949F868FEF798FDB7
:101FC00003461A460221074802F048FF00BF00BF3F
:101FD0001037BD4680BD00BF2001002000007041C9
:101FE0000000C841002C014090B583B000AF78607C
:101FF00039603B681B78184600F034F90346002B23
:1020000002D0012B1FD03DE0204B1A687B681B6873
:1020100019461046FEF76AFD03461D491846FEF7AD
:102020006FFE03461C4603211A4802F0ADFF03462B
:1020300019462046FEF75CFD03461A460321154863
:1020400002F00CFF1EE0114B5A687B681B681946B2
:102050001046FEF74BFD03460D491846FEF750FEAD
:1020600003461C4603210B4802F08EFF0346194627
:102070002046FEF73DFD03461A460321054802F0BF
:10208000EDFE00BF00BF0C37BD4690BD2001002013
:1020900000004040002C014080B483B000AF786065
:1020A00039603B687A6811681960918892799980E3
:1020B0009A713B681B790133DAB23B681A713B684D
:1020C000DB780133DAB23B68DA703B68DB78072BE8
:1020D00002D93B680122DA703B685B79002B11D092
:1020E0003B685B79062B0DD83B681B79202B09D107
:1020F0003B6801221A713B685B790133DAB23B68B5
:102100005A7149E03B685B79062B11D93B685B79D2
:102110000B2B0DD83B681B791F2B09D13B68012283
:102120001A713B685B790133DAB23B685A7133E06C
:102130003B685B790C2B2FD13B689B7903F0030341
:10214000DBB2032B10D13B681B791F2B0CD13B68F2
:102150009B790133DAB23B689A713B6801225A716C
:102160003B6801221A7117E03B689B7903F0030377
:10217000DBB2032B10D03B681B791E2B0CD13B68C4
:102180009B790133DAB23B689A713B6801225A713C
:102190003B6801221A71FFE700BF0C37BD4680BCC7
:1021A000704700BF80B582B000AF2949294800F0D0
:1021B000B5FE2949274800F0DBFC3B461946264876
:1021C000FFF76AFF224B1A78244B1A70204B5A787B
:1021D000224B5A701E4B9A78204B9A70FA781F4BFC
:1021E000DA703A791D4B1A711C491A4800F0BAFD91
:1021F0000121184800F0FAFF194B1B780133DAB2BD
:10220000174B1A70164B1B780B22A0211148FEF7B2
:1022100083FF0C2000F006FB00BF0B22A0210D481D
:10222000FEF7E0FF03461A460D4B1B789A42F4D1A5
:102230000B4B1B780B22A0210648FEF76DFF0C20EC
:1022400000F0F0FA01F0AEFD00BF0837BD4680BDDA
:102250005801002000540040F0000020D40000206D
:102260009C00002080B483B000AF0346FB71FB7973
:10227000002B06D00B4B9B7AFA799A4201D80023A7
:102280000BE0084B9B7AFA799A4206D9054BDB7A28
:10229000FA799A4201D80123FFE718460C37BD4668
:1022A00080BC70472001002080B582B000AF78600C
:1022B0000B467B804021786803F072FC7B881946CE
:1022C000786803F02FFC00BF4021786803F04CFCD5
:1022D0000346002BF8D000BF0837BD4680BD00BFC5
:1022E00080B582B000AF78602021786803F058FC98
:1022F00000BF2021786803F037FC0346002BF8D09C
:10230000786803F021FC034618460837BD4680BDB7
:1023100080B584B000AF786039603868FDF722FF7F
:102320000346FB720023FB600BE0FB683A68134432
:102330001B789BB219467868FFF7B6FFFB6801333C
:10234000FB60FA7AFB689A42EFDC00BF1037BD46AB
:1023500080BD00BF80B586B000AFF860B96013469D
:10236000FB710023FB7400237B6107E07B69BA6883
:102370001344FA7C1A707B6901337B61F868FFF7BC
:10238000AFFF0346FB74FA7CFB799A42EED17B697E
:10239000BA68134400221A7000BF1837BD4680BDCA
:1023A00098B500AF0922A0215748FEF71BFF03464E
:1023B000013B052B00F2A68001A252F823F000BFDA
:1023C000D92300080B2400083D2400086F240008CE
:1023D000A1240008D32400084C4A4D4B14460FCBCF
:1023E00084E80F004B4801F00BFE4A4801F014FE50
:1023F0004849494801F0E4FD01F0D4FC42F2107074
:1024000000F010FA01F0CEFC7CE0404A434B144649
:102410000FCB84E80F003F4801F0F2FD3D4801F08A
:10242000FBFD3C493E4801F0CBFD01F0BBFC42F214
:10243000107000F0F7F901F0B5FC63E0334A394B56
:1024400014460FCB84E80F00324801F0D9FD314823
:1024500001F0E2FD2F49344801F0B2FD01F0A2FC89
:1024600042F2107000F0DEF901F09CFC4AE0274ACD
:102470002E4B14460FCB84E80F00264801F0C0FD18
:10248000244801F0C9FD2349294801F099FD01F0D4
:1024900089FC42F2107000F0C5F901F083FC31E0D4
:1024A0001A4A244B14460FCB84E80F00194801F058
:1024B000A7FD184801F0B0FD16491F4801F080FD46
:1024C00001F070FC42F2107000F0ACF901F06AFC0F
:1024D00018E00E4A194B14460FCB84E80F000D4844
:1024E00001F08EFD0B4801F097FD0A49144801F0F8
:1024F00067FD01F057FC42F2107000F093F901F013
:1025000051FC00BF00BF98BD0054004020010020D6
:1025100030010020BC000020AC7400080001002045
:10252000BC740008E0000020CC74000810010020FA
:10253000DC74000840010020EC74000864010020F5
:102540000875000880B400AF534B1522DA72524B65
:1025500046225A72504B25221A724F4B41229A73CF
:102560004D4B4E4A5A604C4B4D4A1A604A4B0E2214
:102570001A73494B12229A72474B07225A73494BDE
:102580001C22DA72474B4B225A72464B3C221A727B
:10259000444B00229A73434B4FF000025A60414B68
:1025A0003F4A1A603F4B00221A733E4B19229A721F
:1025B0003C4B00225A733C4B1E22DA723A4B4B22A0
:1025C0005A72394B37221A72374B46229A73364B5E
:1025D000334A5A60344B354A1A60334B0E221A7311
:1025E000314B04229A72304B05225A73304B12221F
:1025F000DA722F4B4B225A722D4B2D221A722C4B12
:1026000046229A732A4B2B4A5A60294B244A1A6055
:10261000274B0E221A73264B0F229A72244B092243
:102620005A73254B1722DA72234B4B225A72224BD4
:102630002D221A72204B46229A731F4B1D4A5A6054
:102640001D4B174A1A601C4B0E221A731A4B142288
:102650009A72194B09225A73184B1C22DA72174BC3
:102660004B225A72154B37221A72144B00229A735E
:10267000124B104A5A60114B094A1A600F4B002244
:102680001A730E4B19229A720C4B00225A7300BF18
:10269000BD4680BC704700BF30010020CDCC144245
:1026A0000000164200010020E0000020CDCC1642C0
:1026B00010010020000014424001002064010020AD
:1026C00080B586B000AFFEF731FEFFF769FE4FF030
:1026D00000033B614FF00003FB600023FB75002308
:1026E000BB7500237B750522A0214748FEF77AFDC4
:1026F00003461A46454B9A710622A0214248FEF72E
:1027000071FD03461A46414B5A710722A0213E48EB
:10271000FEF768FD03461A463C4BDA700822A021FA
:102720003948FEF75FFD03461A46384B9A700B2274
:10273000A0213548FEF756FD03461A46344B1A7061
:10274000344803F001FA0346632B13D13249314870
:10275000FFF7DEFD3B1D2E2219462E48FFF7FAFD3E
:102760003B1D2E491846FDF7F3FC0346002B01D113
:10277000FEF7E2FE0121244800F0A0FC0346002BF6
:1027800001D0FFF70FFD204802F096FC0346FB60E6
:102790001D4802F069FD03463B61BB7D5A1C134690
:1027A000DB009B1A1E4A1288934212DBBB7D013369
:1027B000BB75FB7D042B01D90023FB75FB7D013329
:1027C000FB75FB7D07F1100107F10C000F4AFFF7C5
:1027D000ADF807F10C030E491846FFF799FB7B7D16
:1027E0005A1C13469B0013445B001A460C4B1B8873
:1027F0009A42A5DB7B7D01337B7507F10C0304490D
:102800001846FFF7F1FB9BE700540040F80000205A
:102810009C000020003801401C7500083475000839
:102820009E00002080B485B000AF0346FB8009E025
:102830000023FB8102E0FB890133FB81FB89B3F5B7
:10284000E16FF8D9FB885A1EFA80002BF0D100BF47
:102850001437BD4680BC704780B500AF064B1B885F
:1028600001339AB2044B1A8001214FF0804003F0EB
:102870006FF800BF80BD00BF9E00002080B487B00D
:1028800000AF7860396000237B613B68013B3B61AE
:1028900018E07B697A6813441B78FB607B697A686F
:1028A00013443A6979680A4412781A703B697A6865
:1028B0001344FA68D2B21A707B6901337B613B69B9
:1028C000013B3B617A693B699A42E2DB00BF1C37FE
:1028D000BD4680BC704700BF80B586B000AFF860D1
:1028E000B9607A6000237B611DE07B695A1C7A61C4
:1028F0001A46BB689818FA681A4B83FB02139910A2
:10290000D317C91A0B469B000B445B00D11ACBB2FC
:102910003033DBB20370FB68124A82FB0312921061
:10292000DB17D31AFB60FB68002BDED107E07B6965
:102930005A1C7A611A46BB68134430221A707A69AD
:102940007B689A42F3DB7969B868FFF797FF7B6988
:10295000BA68134400221A707B6918461837BD46BE
:1029600080BD00BF67666666B0B588B000AFF8602E
:10297000B9607A60F868FEF789FB0346FB61F86985
:10298000FEF76AF903461946F868FEF7AFF8034602
:10299000BB610022B968F869FFF79EFF78617B6828
:1029A000002B2CD07B69BA6813442E221A70B869A8
:1029B000FDF744FD04460D467868FDF72DFD0246FF
:1029C0000B464FF00000104903F00CFC02460B468A
:1029D00020462946FDF786FD03460C46184621464B
:1029E000FEF730F80346BB61B869FEF74FFB7B6921
:1029F0000133BA6813447A681946FFF76DFF00BFC8
:102A00002037BD46B0BD00BF0000244080B582B075
:102A100000AF7860396000BF4FF40031786802F091
:102A2000B5FE0346002BF7D10121786802F002FEC3
:102A30000121786802F0BEFD00BF4949786802F0C4
:102A4000A5FE0346002BF8D00022D021786802F0C2
:102A50002FFE00BF4349786802F068FE0346002B52
:102A6000F8D00021786802F005FE00BF3E49786882
:102A700002F05CFE0346002BF8D03B681B78194639
:102A8000786802F0F7FD00BF3749786802F04EFE23
:102A90000346002BF8D03B685B781946786802F053
:102AA000E9FD00BF3049786802F040FE0346002B84
:102AB000F8D03B689B781946786802F0DBFD00BFD0
:102AC0002949786802F032FE0346002BF8D03B68B3
:102AD000DB781946786802F0CDFD00BF224978689E
:102AE00002F024FE0346002BF8D03B681B79194600
:102AF000786802F0BFFD00BF1B49786802F016FE3F
:102B00000346002BF8D03B685B791946786802F0E1
:102B1000B1FD00BF1449786802F008FE0346002B9F
:102B2000F8D03B689B791946786802F0A3FD00BF96
:102B30000D49786802F0FAFD0346002BF8D0012118
:102B4000786802F057FD00BF0849786802F01EFE61
:102B50000346002BF8D100BF0837BD4680BD00BF3B
:102B60000100001082000700840007001000001020
:102B700080B582B000AF7860396000BF4FF400319B
:102B8000786802F003FE0346002BF7D10121786834
:102B900002F050FD0121786802F00CFD00BF6B4986
:102BA000786802F0F3FD0346002BF8D00022D02114
:102BB000786802F07DFD00BF6549786802F0B6FDD7
:102BC0000346002BF8D00021786802F053FD00BFC7
:102BD0006049786802F0AAFD0346002BF8D0012175
:102BE000786802F007FD00BF5B49786802F0CEFD0F
:102BF0000346002BF8D10121786802F0DBFC00BF0E
:102C00005249786802F0C2FD0346002BF8D0012239
:102C1000D021786802F04CFD00BF5049786802F07E
:102C200085FD0346002BF8D000BF4D49786802F0BF
:102C30007DFD0346002BF8D0786802F02BFD03469B
:102C400003F03C03DAB23B681A7000BF444978686D
:102C500002F06CFD0346002BF8D0786802F01AFDF4
:102C6000034603F07F03DAB23B685A7000BF3C4969
:102C7000786802F05BFD0346002BF8D0786802F01C
:102C800009FD034603F01F03DAB23B689A7000BFE8
:102C90003349786802F04AFD0346002BF8D0786883
:102CA00002F0F8FC034603F00703DAB23B68DA707F
:102CB00000BF2B49786802F039FD0346002BF8D09D
:102CC000786802F0E7FC034603F03F03DAB23B68A2
:102CD0001A7100BF2249786802F028FD0346002BD4
:102CE000F8D0786802F0D6FC034603F01F03DAB28E
:102CF0003B685A7100BF1A49786802F017FD034615
:102D0000002BF8D0786802F0C5FC03461A463B68F1
:102D10009A714FF2FF71786802F0E8FC0021786840
:102D200002F088FC0121786802F064FC00BF0A49C7
:102D3000786802F02BFD0346002BF8D1012178685A
:102D400002F078FC00BF0837BD4680BD01000010CE
:102D5000820007008400070010000010020003003A
:102D60004000030080B582B000AF7860396000BFDA
:102D70004FF40031786802F009FD0346002BF7D1CB
:102D80000121786802F056FC0121786802F012FCFB
:102D900000BF5E49786802F0F9FC0346002BF8D0CA
:102DA0000022D021786802F083FC00BF584978687F
:102DB00002F0BCFC0346002BF8D00721786802F033
:102DC00059FC00BF5349786802F0B0FC0346002B61
:102DD000F8D03B681B781946786802F04BFC00BFBE
:102DE0004C49786802F0A2FC0346002BF8D03B68FF
:102DF0005B781946786802F03DFC00BF4549786869
:102E000002F094FC0346002BF8D03B689B781946EF
:102E1000786802F02FFC00BF3E49786802F086FC1B
:102E20000346002BF8D03B68DB781946786802F03F
:102E300021FC00BF3749786802F078FC0346002B7C
:102E4000F8D03B681B791946786802F013FC00BF84
:102E50003049786802F06AFC0346002BF8D0012163
:102E6000786802F0C7FB00BF2B49786802F08EFC3F
:102E70000346002BF8D100BF4FF40031786802F010
:102E800085FC0346002BF7D10121786802F092FB04
:102E900000BF1E49786802F079FC0346002BF8D089
:102EA0000022D021786802F003FC00BF184978683E
:102EB00002F03CFC0346002BF8D00E21786802F0AB
:102EC000D9FB00BF1349786802F030FC0346002BA1
:102ED000F8D01D21786802F0CDFB00BF0D4978685D
:102EE00002F024FC0346002BF8D00121786802F0A0
:102EF00081FB00BF0849786802F048FC0346002BBC
:102F0000F8D100BF0837BD4680BD00BF01000010EA
:102F100082000700840007001000001080B582B016
:102F200000AF7860396000BF4FF40031786802F07C
:102F30002DFC0346002BF7D10121786802F07AFBC3
:102F40000121786802F036FB00BF5649786802F02C
:102F50001DFC0346002BF8D00022D021786802F037
:102F6000A7FB00BF5049786802F0E0FB0346002B46
:102F7000F8D00721786802F07DFB00BF4B497868E4
:102F800002F0D4FB0346002BF8D00121786802F050
:102F900031FB00BF4649786802F0F8FB0346002B7E
:102FA000F8D10121786802F005FB00BF3D4978683F
:102FB00002F0ECFB0346002BF8D00122D021786808
:102FC00002F076FB00BF3B49786802F0AFFB034696
:102FD000002BF8D000BF3849786802F0A7FB034601
:102FE000002BF8D0786802F055FB03461A463B6880
:102FF0001A7000BF3049786802F098FB0346002B36
:10300000F8D0786802F046FB03461A463B685A70CF
:1030100000BF2949786802F089FB0346002BF8D0ED
:10302000786802F037FB03461A463B689A7000BF87
:103030002149786802F07AFB0346002BF8D07868C3
:1030400002F028FB03461A463B68DA7000BF1A49B3
:10305000786802F06BFB0346002BF8D0786802F02A
:1030600019FB03461A463B681A714FF2FF717868E4
:1030700002F03CFB0021786802F0DCFA012178685C
:1030800002F0B8FA00BF0A49786802F07FFB0346F5
:10309000002BF8D10121786802F0CCFA00BF083784
:1030A000BD4680BD010000108200070084000700BB
:1030B00010000010020003004000030080B584B03F
:1030C00000AF78600B46FB7000BF4FF400317868AA
:1030D00002F05CFB0346002BF7D10121786802F077
:1030E000A9FA0121786802F065FA00BF39497868C9
:1030F00002F04CFB0346002BF8D00022D021786868
:1031000002F0D6FA00BF3449786802F00FFB03469C
:10311000002BF8D00F21786802F0ACFA00BF2F49DD
:10312000786802F003FB0346002BF8D00121786891
:1031300002F060FA00BF2A49786802F027FB0346D4
:10314000002BF8D10121786802F034FA00BF214940
:10315000786802F01BFB0346002BF8D00122D02137
:10316000786802F0A5FA00BF1E49786802F0DEFA1E
:103170000346002BF8D000BF1B49786802F0D6FA4E
:103180000346002BF8D0786802F084FA03461A460A
:10319000FB781340FB734FF2FF71786802F0A6FAD8
:1031A0000021786802F046FA0121786802F022FADC
:1031B00000BF0B49786802F0E9FA0346002BF8D10A
:1031C0000121786802F036FAFB7B18461037BD46BD
:1031D00080BD00BF010000108200070084000700CE
:1031E00010000010020003004000030080B582B010
:1031F00000AF78600B46FB7000BF4FF40031786879
:1032000002F0C4FA0346002BF7D10121786802F0DE
:1032100011FA0121786802F0CDF900BF39497868C8
:1032200002F0B4FA0346002BF8D00022D0217868CF
:1032300002F03EFA00BF3449786802F077FA03469C
:10324000002BF8D00F21786802F014FA00BF2F4944
:10325000786802F06BFA0346002BF8D001217868F9
:1032600002F0C8F900BF2A49786802F08FFA0346D5
:10327000002BF8D10121786802F09CF900BF2149A8
:10328000786802F083FA0346002BF8D00022D021A0
:10329000786802F00DFA00BF1B49786802F046FA20
:1032A0000346002BF8D00F21786802F0E3F900BF45
:1032B0001649786802F03AFA0346002BF8D0FB78FA
:1032C000002B0CBF01230023DBB21946786802F003
:1032D000D1F900BF0D49786802F028FA0346002BA7
:1032E000F8D00121786802F085F900BF08497868B4
:1032F00002F04CFA0346002BF8D100BF0837BD4658
:1033000080BD00BF0100001082000700840007009C
:103310001000001090B482B000AF04460846114679
:103320001A462346FB710346BB710B467B7113465D
:103330003B71FB79013B042B00F29F8301A252F801
:1033400023F000BF59330008C334000835360008A5
:103350009F370008113900087B79032BFCD83B7993
:10336000032BF9D8BB79072B4DD8AF49AE4B1B685F
:10337000BA799200032000FA02F2D24313400B60A4
:10338000A949A94B1B68BA7992000232032000FABE
:1033900002F2D24313400B60A348A34B1B68797918
:1033A000BA79920001FA02F2134303609E489E4BE1
:1033B0001B683979BA799200023201FA02F213439A
:1033C000036000BF984B1B68BA799200032101FA91
:1033D00002F213407979BA79920001FA02F293422B
:1033E000F0D1914B1B68BA7992000232032101FAA5
:1033F00002F213403979BA799200023201FA02F2EC
:103400009342DFD13AE3BB79072B58D9BB790F2B15
:1034100055D88549844B5B68BA79083A92000320F5
:1034200000FA02F2D24313404B607F497E4B5B6847
:10343000BA79083A92000232032000FA02F2D2432B
:1034400013404B607848784B5B687979BA79083AD1
:10345000920001FA02F2134343607348724B5B68B7
:103460003979BA79083A9200023201FA02F213432A
:10347000436000BF6C4B5B68BA79083A9200032145
:1034800001FA02F213407979BA79083A920001FA06
:1034900002F29342EED1644B5B68BA79083A92002B
:1034A0000232032101FA02F213403979BA79083A5B
:1034B0009200023201FA02F29342DBD100E0FEE711
:1034C000DCE27B79032BFCD83B79032BF9D8BB7961
:1034D000072B4DD85549554B1B68BA7992000320EC
:1034E00000FA02F2D24313400B6050494F4B1B6865
:1034F000BA7992000232032000FA02F2D24313405A
:103500000B604A48494B1B687979BA79920001FAF5
:1035100002F2134303604548444B1B683979BA797A
:103520009200023201FA02F21343036000BF3F4BE4
:103530001B68BA799200032101FA02F213407979EB
:10354000BA79920001FA02F29342F0D1374B1B682C
:10355000BA7992000232032101FA02F2134039795A
:10356000BA799200023201FA02F29342DFD185E287
:10357000BB79072B5CD9BB790F2B59D82B492B4B27
:103580005B68BA79083A9200032000FA02F2D2434B
:1035900013404B602549254B5B68BA79083A920085
:1035A0000232032000FA02F2D24313404B601F485C
:1035B0001E4B5B687979BA79083A920001FA02F2F7
:1035C000134343601948194B5B683979BA79083A53
:1035D0009200023201FA02F21343436000BF134B20
:1035E0005B68BA79083A9200032101FA02F21340AB
:1035F0007979BA79083A920001FA02F29342EED14F
:103600000A4B5B68BA79083A92000232032101FA48
:1036100002F213403979BA79083A9200023201FA7B
:1036200002F29342DBD104E000080140000C0140AB
:10363000FEE723E27B79032BFCD83B79032BF9D8F7
:10364000BB79072B4DD8AF49AE4B1B68BA799200B6
:10365000032000FA02F2D24313400B60A949A94BA0
:103660001B68BA7992000232032000FA02F2D243B8
:1036700013400B60A348A34B1B687979BA79920079
:1036800001FA02F2134303609E489E4B1B6839798E
:10369000BA799200023201FA02F21343036000BFCA
:1036A000984B1B68BA799200032101FA02F2134089
:1036B0007979BA79920001FA02F29342F0D1914BF2
:1036C0001B68BA7992000232032101FA02F2134018
:1036D0003979BA799200023201FA02F29342DFD1CB
:1036E000CCE1BB79072B58D9BB790F2B55D885492D
:1036F000844B5B68BA79083A9200032000FA02F220
:10370000D24313404B607F497E4B5B68BA79083ADD
:1037100092000232032000FA02F2D24313404B60BF
:103720007848784B5B687979BA79083A920001FA5F
:1037300002F2134343607348724B5B683979BA797C
:10374000083A9200023201FA02F21343436000BFCA
:103750006C4B5B68BA79083A9200032101FA02F2D5
:1037600013407979BA79083A920001FA02F2934249
:10377000EED1644B5B68BA79083A920002320321B9
:1037800001FA02F213403979BA79083A920002320A
:1037900001FA02F29342DBD100E0FEE76EE17B79B1
:1037A000032BFCD83B79032BF9D8BB79072B4DD8D9
:1037B0005549554B1B68BA799200032000FA02F272
:1037C000D24313400B6050494F4B1B68BA799200AB
:1037D0000232032000FA02F2D24313400B604A483F
:1037E000494B1B687979BA79920001FA02F21343C6
:1037F00003604548444B1B683979BA79920002321C
:1038000001FA02F21343036000BF3F4B1B68BA7911
:103810009200032101FA02F213407979BA799200F9
:1038200001FA02F29342F0D1374B1B68BA79920049
:103830000232032101FA02F213403979BA79920077
:10384000023201FA02F29342DFD117E1BB79072B72
:103850005CD9BB790F2B59D82B492B4B5B68BA79B4
:10386000083A9200032000FA02F2D24313404B6060
:103870002549254B5B68BA79083A92000232032049
:1038800000FA02F2D24313404B601F481E4B5B68A4
:103890007979BA79083A920001FA02F21343436047
:1038A0001948194B5B683979BA79083A92000232A3
:1038B00001FA02F21343436000BF134B5B68BA790D
:1038C000083A9200032101FA02F213407979BA7999
:1038D000083A920001FA02F29342EED10A4B5B6879
:1038E000BA79083A92000232032101FA02F2134037
:1038F0003979BA79083A9200023201FA02F2934217
:10390000DBD104E00010014000140140FEE7B5E007
:103910007B79032BFCD83B79032BF9D8BB79072B98
:103920004DD85949584B1B68BA799200032000FAC8
:1039300002F2D24313400B605349534B1B68BA79D0
:1039400092000232032000FA02F2D24313400B60CD
:103950004D484D4B1B687979BA79920001FA02F211
:10396000134303604848484B1B683979BA79920081
:10397000023201FA02F21343036000BF424B1B689C
:10398000BA799200032101FA02F213407979BA79E7
:10399000920001FA02F29342F0D13B4B1B68BA79D4
:1039A00092000232032101FA02F213403979BA7906
:1039B0009200023201FA02F29342DFD15EE0BB795B
:1039C000072B58D9BB790F2B55D82F492E4B5B6845
:1039D000BA79083A9200032000FA02F2D243134067
:1039E0004B602949284B5B68BA79083A9200023249
:1039F000032000FA02F2D24313404B602248224BCC
:103A00005B687979BA79083A920001FA02F21343B5
:103A100043601D481C4B5B683979BA79083A9200BB
:103A2000023201FA02F21343436000BF164B5B6897
:103A3000BA79083A9200032101FA02F21340797927
:103A4000BA79083A920001FA02F29342EED10E4B93
:103A50005B68BA79083A92000232032101FA02F255
:103A600013403979BA79083A9200023201FA02F227
:103A70009342DBD100E0FEE700E0FEE700BF08373D
:103A8000BD4690BC704700BF0018014080B483B0B1
:103A900000AF03460A46FB711346BB71FB79012B4D
:103AA00016D14249414B1B69BA79012000FA02F252
:103AB00013430B6100BF3D4BDB68BA79012101FA6A
:103AC00002F21340BA79012101FA02F29342F2D1D3
:103AD000FB79022B16D13649354B1B69BA79012087
:103AE00000FA02F213430B6100BF314BDB68BA7975
:103AF000012101FA02F21340BA79012101FA02F21E
:103B00009342F2D1FB79032B16D12A49294B1B6929
:103B1000BA79012000FA02F213430B6100BF254B72
:103B2000DB68BA79012101FA02F21340BA79012166
:103B300001FA02F29342F2D1FB79042B16D11E490D
:103B40001D4B1B69BA79012000FA02F213430B6185
:103B500000BF194BDB68BA79012101FA02F2134068
:103B6000BA79012101FA02F29342F2D1FB79052BD5
:103B700016D11249114B1B69BA79012000FA02F2E1
:103B800013430B6100BF0D4BDB68BA79012101FAC9
:103B900002F21340BA79012101FA02F29342F2D102
:103BA00000BF0C37BD4680BC704700BF0008014015
:103BB000000C0140001001400014014000180140B9
:103BC00080B483B000AF03460A46FB711346BB7155
:103BD000FB79012B17D14449434B5B69BA7901202A
:103BE00000FA02F213434B6100BF3F4BDB68BA7926
:103BF000012101FA02F21340BA79012101FA02F21D
:103C00009342F2D06AE0FB79022B17D13749374B48
:103C10005B69BA79012000FA02F213434B6100BFDD
:103C2000324BDB68BA79012101FA02F21340BA790A
:103C3000012101FA02F29342F2D04FE0FB79032B0B
:103C400017D12B492A4B5B69BA79012000FA02F29D
:103C500013434B6100BF264BDB68BA79012101FA9F
:103C600002F21340BA79012101FA02F29342F2D032
:103C700034E0FB79042B17D11E491E4B5B69BA79DE
:103C8000012000FA02F213434B6100BF194BDB68BD
:103C9000BA79012101FA02F21340BA79012101FA3D
:103CA00002F29342F2D019E0FB79052B16D11249AA
:103CB000114B5B69BA79012000FA02F213434B61A0
:103CC00000BF0D4BDB68BA79012101FA02F2134003
:103CD000BA79012101FA02F29342F2D000BF0C3707
:103CE000BD4680BC704700BF00080140000C014089
:103CF00000100140001401400018014080B483B05E
:103D000000AF7860254A254B5B6A43F0010353629C
:103D100000BF224B5B6A03F00203002BF9D0204B5B
:103D20004CF6CC421A601E4B45F255521A607B6825
:103D3000042B03D11A4B00225A602BE07B68082B1E
:103D400003D1174B01225A6024E07B68102B03D16A
:103D5000134B02225A601DE07B68202B03D1104BCD
:103D600003225A6016E07B68402B03D10C4B0422DF
:103D70005A600FE07B68802B03D1094B05225A6003
:103D800008E07B68B3F5807F03D1054B06225A60BB
:103D900000E0FEE70C37BD4680BC704700100240D3
:103DA0000030004080B400AF034B4AF6AA221A60EC
:103DB00000BFBD4680BC70470030004080B485B075
:103DC00000AF0346FB8009E00023FB8102E0FB8992
:103DD0000133FB81FB89B3F5E16FF8D9FB885A1EEB
:103DE000FA80002BF0D100BF1437BD4680BC70476D
:103DF00080B582B000AF78607B6858787B681978AE
:103E000000230322FFF786FA7B68D8787B689978CD
:103E100000230322FFF77EFA7B6858797B681979C3
:103E200000230322FFF776FA7B68D8797B689979BB
:103E300000230322FFF76EFA7B68587A7B68197AB1
:103E400000230322FFF766FA7B68D87A7B68997AA9
:103E500000230322FFF75EFA7B68587B7B68197B9F
:103E600000230322FFF756FA7B68D87B7B68997B97
:103E700000230322FFF74EFA7B68187C7B68597C8D
:103E800000230322FFF746FA7B68187D7B68597D83
:103E900000230322FFF73EFA7B68987C7B68D97C7D
:103EA00000230322FFF736FA7968382000F014F86F
:103EB00079680F2000F010F87968012000F00CF804
:103EC00079680E2000F008F87968C02000F004F846
:103ED00000BF0837BD4680BD80B582B000AF034645
:103EE0003960FB71FB791946386800F0CFF83B6800
:103EF0009A7C3B68DB7C19461046FFF761FE3B6805
:103F00001A7C3B685B7C19461046FFF759FE3B68FC
:103F10001A7D3B685B7D19461046FFF7B7FD02200E
:103F2000FFF74CFF3B681A7D3B685B7D19461046E6
:103F3000FFF746FE0220FFF741FFFB79194638687C
:103F400000F026F900BF0837BD4680BD80B582B0BD
:103F500000AF03463960FB71FB791946386800F001
:103F600095F83B681A7C3B685B7C19461046FFF766
:103F70008DFD3B689A7C3B68DB7C19461046FFF759
:103F80001FFE3B681A7D3B685B7D19461046FFF7B4
:103F90007DFD0220FFF712FF3B681A7D3B685B7DC9
:103FA00019461046FFF70CFE0A20FFF707FFFB79C2
:103FB0001946386800F0ECF800BF0837BD4680BDF0
:103FC00080B584B000AF786039607868FCF7CAF8D3
:103FD0000346BB730023FB730AE0FB7B7A68134440
:103FE0001B7839681846FFF7B1FFFB7B0133FB7381
:103FF000FA7BBB7B9A42F0D300BF1037BD4680BD31
:1040000080B582B000AF786079680120FFF764FF67
:1040100000BF0837BD4680BD80B582B000AF786074
:1040200079680220FFF758FF00BF0837BD4680BD02
:1040300080B582B000AF03463A60FB710B46BB719E
:10404000BB79012B0BD1FB79102B08D8FB7963F0DE
:104050007F03DBB239681846FFF73EFF11E0BB79FA
:10406000022B0ED1FB79102B0BD8FB794033DBB23E
:104070005BB263F07F035BB2DBB239681846FFF7CF
:104080002BFF00BF0837BD4680BD00BF80B582B0A2
:1040900000AF78600B46FB70FB78803B002B0ADB9F
:1040A0007B68DA7B7B689B7B19461046FFF7EEFC4A
:1040B000FB78803BFB70FB78403B002B0ADB7B6886
:1040C0005A7B7B681B7B19461046FFF7DFFCFB78A9
:1040D000403BFB70FB78203B002B0ADB7B68DA7AE5
:1040E0007B689B7A19461046FFF7D0FCFB78203B93
:1040F000FB70FB78103B002B0ADB7B685A7A7B68ED
:104100001B7A19461046FFF7C1FCFB78103BFB7089
:10411000FB78083B002B0ADB7B68DA797B689B79AC
:1041200019461046FFF7B2FCFB78083BFB70FB78A2
:10413000043B002B0ADB7B685A797B681B791946A4
:104140001046FFF7A3FCFB78043BFB70FB78023BB7
:10415000002B0ADB7B68DA787B689B78194610466F
:10416000FFF794FCFB78023BFB70FB78013B002BD4
:104170000ADB7B685A787B681B7819461046FFF784
:1041800085FCFB78013BFB7000BF0837BD4680BD56
:1041900080B582B000AF78600B46FB70FB78803B47
:1041A000002B0ADB7B68DA7B7B689B7B1946104619
:1041B000FFF706FDFB78803BFB70FB78403B002B54
:1041C0000ADB7B685A7B7B681B7B19461046FFF72E
:1041D000F7FCFB78403BFB70FB78203B002B0ADBB5
:1041E0007B68DA7A7B689B7A19461046FFF7E8FC11
:1041F000FB78203BFB70FB78103B002B0ADB7B68D5
:104200005A7A7B681B7A19461046FFF7D9FCFB786F
:10421000103BFB70FB78083B002B0ADB7B68DA79EC
:104220007B689B7919461046FFF7CAFCFB78083B70
:10423000FB70FB78043B002B0ADB7B685A797B68B8
:104240001B7919461046FFF7BBFCFB78043BFB705B
:10425000FB78023B002B0ADB7B68DA787B689B7873
:1042600019461046FFF7ACFCFB78023BFB70FB786D
:10427000013B002B0ADB7B685A787B681B78194668
:104280001046FFF79DFCFB78013BFB7000BF083731
:10429000BD4680BD80B400AF0C4A0C4B5B6823F078
:1042A00003035360094A094B5B68094909780B43CA
:1042B0005360064A054B1B6843F08073136000BFD0
:1042C000024B1B6800BFBD4680BC70470010024017
:1042D0007401002080B400AF124B5B68DBB203F0C6
:1042E0000303DAB2104B1A700E4A0E4B5B6843F0B0
:1042F000030353600B4A0B4B1B6823F0807313605E
:1043000000BF084B1B6803F00073002B05D1054B61
:104310005B6803F00C030C2BF3D000BFBD4680BCE0
:10432000704700BF001002407401002080B582B0C9
:1043300000AF0346FB71FB79012B14D9FB79102BDD
:1043400011D8FFF7C7FF0A4A094B5B6823F47013C3
:1043500053600749064B5B68FA79023A92041343AB
:104360004B60FFF797FF00BF0837BD4680BD00BF19
:104370000010024080B582B000AF0346FB71FB79AC
:10438000012B02D0FB79022BF9D1FFF7A3FF0F4AD3
:104390000E4B5B6823F4803353600C490B4B5B6816
:1043A000FA79013A120413434B60FFF773FF00BF21
:1043B000064B5B6803F48033FA79013A12049342A6
:1043C000F6D100BF0837BD4680BD00BF00100240D7
:1043D00080B483B000AF0346FB71FB79002BFCD0A7
:1043E000FB79032BF9D80E4A0D4B5B6823F00303CE
:1043F00053600B490A4B5B68FA79013A13434B60EF
:1044000000BF074B5B6803F00C03FA79013A920096
:104410009342F6D100BF0C37BD4680BC704700BF49
:104420000010024080B483B000AF78607B68012B3D
:1044300019D07B68022B16D07B68042B13D07B68C5
:10444000082B10D07B68102B0DD07B68402B0AD036
:104450007B68802B07D07B68B3F5807F03D07B68B7
:10446000B3F5007FE2D17B68102B6CD0102B0BDCF6
:10447000022B2CD0022B02DC012B16D0C7E0042B20
:1044800039D0082B4BD0C2E0802B00F08480802BE9
:1044900002DC402B6BD0BAE0B3F5807F00F08F8058
:1044A000B3F5007F00F09F80B1E05B4A5A4B5B6838
:1044B00023F0F0035360584A574B5B68536000BFCA
:1044C000554B5B6803F0F003002BF9D19FE0524A93
:1044D000514B5B6823F0F00353604F4A4E4B5B68CF
:1044E00043F08003536000BF4B4B5B6803F0F00365
:1044F000802BF9D18BE0484A474B5B6823F0F003EF
:104500005360454A444B5B6843F09003536000BFDF
:10451000414B5B6803F0F003902BF9D177E03E4A02
:104520003D4B5B6823F0F00353603B4A3A4B5B68BA
:1045300043F0A003536000BF374B5B6803F0F00308
:10454000A02BF9D163E0344A334B5B6823F0F003CE
:104550005360314A304B5B6843F0B003536000BF97
:104560002D4B5B6803F0F003B02BF9D14FE02A4AE2
:10457000294B5B6823F0F0035360274A264B5B68A6
:1045800043F0C003536000BF234B5B6803F0F003AC
:10459000C02BF9D13BE0204A1F4B5B6823F0F003AE
:1045A00053601D4A1C4B5B6843F0D003536000BF4F
:1045B000194B5B6803F0F003D02BF9D127E0164AC2
:1045C000154B5B6823F0F0035360134A124B5B6892
:1045D00043F0E003536000BF0F4B5B6803F0F00350
:1045E000E02BF9D113E00C4A0B4B5B6823F0F0038E
:1045F0005360094A084B5B6843F0F003536000BF07
:10460000054B5B6803F0F003F02BF9D100BF00BF4E
:104610000C37BD4680BC70470010024080B483B0A8
:1046200000AF03460A46FB711346BB71FB79013BA1
:104630000F2B00F2898001A252F823F07D4600087A
:10464000A146000849470008CB4600084947000832
:104650004947000849470008F5460008494700084F
:1046600049470008494700084947000849470008EA
:1046700049470008494700081F4700087D4A7D4B0D
:104680005B6823F4E06353607A4A7A4B5B6853605B
:1046900000BF784B5B6803F4E063002BF9D154E072
:1046A000744A744B5B6823F4E0635360714A714B46
:1046B0005B6843F48063536000BF6E4B5B6803F438
:1046C000E063B3F5806FF8D13FE06A4A694B5B68FD
:1046D00023F4E0635360674A664B5B6843F4A0636E
:1046E000536000BF634B5B6803F4E063B3F5A06FF6
:1046F000F8D12AE05F4A5F4B5B6823F4E0635360C4
:104700005C4A5C4B5B6843F4C063536000BF594B29
:104710005B6803F4E063B3F5C06FF8D115E0554A68
:10472000544B5B6823F4E0635360524A514B5B681F
:1047300043F4E063536000BF4E4B5B6803F4E063F7
:10474000B3F5E06FF8D100E0FEE7BB79013B0F2B3A
:1047500000F28A8001A252F823F000BF9D470008B2
:10476000C147000869480008EB470008694800088D
:1047700069480008694800081548000869480008A9
:104780006948000869480008694800086948000845
:1047900069480008694800083F480008354A354B19
:1047A0005B6823F460535360324A324B5B6853605A
:1047B00000BF304B5B6803F46053002BF9D154E029
:1047C0002C4A2C4B5B6823F460535360294A294BD5
:1047D0005B6843F40053536000BF264B5B6803F4EF
:1047E0006053B3F5005FF8D13FE0224A214B5B688C
:1047F00023F4605353601F4A1E4B5B6843F42053FD
:10480000536000BF1B4B5B6803F46053B3F5205F3C
:10481000F8D12AE0174A174B5B6823F460535360C2
:10482000144A144B5B6843F44053536000BF114B70
:104830005B6803F46053B3F5405FF8D115E00D4AAF
:104840000C4B5B6823F4605353600A4A094B5B6866
:1048500043F46053536000BF064B5B6803F460533E
:10486000B3F5605FF8D100E0FEE700BF0C37BD464E
:1048700080BC70470010024080B483B000AF786005
:104880000949094B9A697B6813438B6100BF064B4A
:104890009A697B681A407B689A42F8D100BF0C374E
:1048A000BD4680BC704700BF0010024080B483B09A
:1048B00000AF78600949094BDA697B681343CB6123
:1048C00000BF064BDA697B681A407B689A42F8D1D0
:1048D00000BF0C37BD4680BC704700BF00100240CF
:1048E00080B582B000AF786039607B68D8B23B6831
:1048F000D9B202230322FEF70DFD00BF0837BD46E3
:1049000080BD00BF80B483B000AF03463960FB7147
:10491000FB79012B30D1694A684B1B889BB243F06D
:1049200081039BB21380654A644B1B8B9BB223F0BF
:1049300078039BB21383614A604B1B8B9BB243F09D
:1049400068039BB213835D4A5C4B1B8C9BB243F0A4
:1049500001039BB21384594A584BB3F844309BB2BD
:104960006FEA83436FEA93439BB2A2F84430534B00
:104970003A6892B29A869DE0FB79022B30D14F4A79
:104980004E4B1B889BB243F081039BB213804B4A72
:104990004A4B1B8B9BB223F4F0439BB21383474AD1
:1049A000464B1B8B9BB243F4D0439BB21383434AC9
:1049B000424B1B8C9BB243F010039BB213843F4AC3
:1049C0003E4BB3F844309BB26FEA83436FEA9343A4
:1049D0009BB2A2F84430394B3A6892B21A8769E028
:1049E000FB79032B30D1354A344B1B889BB243F003
:1049F00081039BB21380314A304B9B8B9BB223F0D7
:104A000078039BB293832D4A2C4B9B8B9BB243F034
:104A100068039BB29383294A284B1B8C9BB243F4B7
:104A200080739BB21384254A244BB3F844309BB265
:104A30006FEA83436FEA93439BB2A2F844301F4B63
:104A40003A6892B29A8735E0FB79042B31D11B4A40
:104A50001A4B1B889BB243F081039BB21380174A09
:104A6000164B9B8B9BB223F4F0439BB29383134A68
:104A7000124B9B8B9BB243F4D0439BB293830F4A60
:104A80000E4B1B8C9BB243F480539BB213840B4A96
:104A90000A4BB3F844309BB26FEA83436FEA934307
:104AA0009BB2A2F84430054B3A6892B2A3F840207A
:104AB00000E0FEE70C37BD4680BC7047002C01408B
:104AC00080B483B000AF03463960FB711346BB71FD
:104AD0004FF080424FF080431B889BB243F081032C
:104AE0009BB21380FB79012B69D14FF080433A6868
:104AF00092B29A86BB79013B032B00F2A98101A2F5
:104B000052F823F0154B00083F4B0008694B000892
:104B1000934B00084FF080424FF080431B8B9BB2B9
:104B200043F010039BB213834FF080424FF0804359
:104B30001B8C9BB243F001039BB2138488E14FF0BE
:104B400080424FF080431B8B9BB243F020039BB20B
:104B500013834FF080424FF080431B8C9BB243F095
:104B600001039BB2138473E14FF080424FF0804306
:104B70001B8B9BB243F030039BB213834FF08042F8
:104B80004FF080431B8C9BB243F001039BB2138414
:104B90005EE14FF080424FF080431B8B9BB243F0AD
:104BA00020039BB213834FF080424FF080431B8C55
:104BB0009BB223F001039BB2138400BF48E1FB7951
:104BC000022B6AD14FF080433A6892B21A87BB79C0
:104BD000013B032B00F23C8101A252F823F000BFFD
:104BE000F14B00081B4C0008454C00086F4C0008B6
:104BF0004FF080424FF080431B8B9BB243F48053B5
:104C00009BB213834FF080424FF080431B8C9BB2CA
:104C100043F010039BB213841AE14FF080424FF02F
:104C200080431B8B9BB243F400539BB213834FF022
:104C300080424FF080431B8C9BB243F010039BB229
:104C4000138405E14FF080424FF080431B8B9BB2F1
:104C500043F440539BB213834FF080424FF08043A4
:104C60001B8C9BB243F010039BB21384F0E04FF017
:104C700080424FF080431B8B9BB243F400539BB2A6
:104C800013834FF080424FF080431B8C9BB223F084
:104C900010039BB2138400BFDAE0FB79032B6AD1C7
:104CA0004FF080433A6892B29A87BB79013B032B5D
:104CB00000F2CE8001A252F823F000BFCD4C0008D4
:104CC000F74C0008214D00084B4D00084FF0804282
:104CD0004FF080439B8B9BB243F010039BB29383B6
:104CE0004FF080424FF080431B8C9BB243F48073A3
:104CF0009BB21384ACE04FF080424FF080439B8B1B
:104D00009BB243F020039BB293834FF080424FF05D
:104D100080431B8C9BB243F480739BB2138497E057
:104D20004FF080424FF080439B8B9BB243F03003A7
:104D30009BB293834FF080424FF080431B8C9BB219
:104D400043F480739BB2138482E04FF080424FF0B3
:104D500080439B8B9BB243F020039BB293834FF025
:104D600080424FF080431B8C9BB223F480739BB234
:104D7000138400BF6CE0FB79042B69D14FF08043B2
:104D80003A6892B2A3F84020BB79013B032B5FD86D
:104D900001A252F823F000BFA94D0008D34D00082E
:104DA000FD4D0008274E00084FF080424FF0804331
:104DB0009B8B9BB243F480539BB293834FF0804212
:104DC0004FF080431B8C9BB243F480539BB21384FF
:104DD0003EE04FF080424FF080439B8B9BB243F408
:104DE00000539BB293834FF080424FF080431B8C63
:104DF0009BB243F480539BB2138429E04FF080426E
:104E00004FF080439B8B9BB243F440539BB2938300
:104E10004FF080424FF080431B8C9BB243F4805391
:104E20009BB2138414E04FF080424FF080439B8B81
:104E30009BB243F400539BB293834FF080424FF0F8
:104E400080431B8C9BB223F480539BB2138400BF1E
:104E500000BF0C37BD4680BC704700BF80B584B032
:104E600000AFF8600B467A60FB72FB7A012B1ED113
:104E7000FB689B8D9BB21846FBF7EEFE03467968F4
:104E80001846FBF73DFF03463E491846FBF7ECFF8B
:104E900003464FF07E511846FBF72AFE034618469C
:104EA000FCF71AF903469AB2FB689A8665E0FB7A2A
:104EB000022B1ED1FB689B8D9BB21846FBF7CCFEE4
:104EC000034679681846FBF71BFF03462D49184631
:104ED000FBF7CAFF03464FF07E511846FBF708FE6A
:104EE00003461846FCF7F8F803469AB2FB681A879F
:104EF00043E0FB7A032B1ED1FB689B8D9BB21846C7
:104F0000FBF7AAFE034679681846FBF7F9FE03464D
:104F10001C491846FBF7A8FF03464FF07E51184680
:104F2000FBF7E6FD03461846FCF7D6F803469AB2AF
:104F3000FB689A8721E0FB7A042B1ED1FB689B8DCE
:104F40009BB21846FBF788FE034679681846FBF7C4
:104F5000D7FE03460B491846FBF786FF03464FF082
:104F60007E511846FBF7C4FD03461846FCF7B4F81B
:104F700003469AB2FB68A3F8402000BF1037BD4635
:104F800080BD00BF0000C84280B582B000AF78602D
:104F90000B46FB70FB78012B10D17B689B8E9BB27C
:104FA0001A46642303FB02F37A68928D92B293FB54
:104FB000F2F31846FBF750FE03463BE0FB78022B6A
:104FC00010D17B689B8E9BB21A46642303FB02F3CD
:104FD0007A68928D92B293FBF2F31846FBF73CFE8F
:104FE000034627E0FB78032B10D17B689B8E9BB296
:104FF0001A46642303FB02F37A68928D92B293FB04
:10500000F2F31846FBF728FE034613E0FB78042B67
:1050100010D17B689B8E9BB21A46642303FB02F37C
:105020007A68928D92B293FBF2F31846FBF714FE66
:105030000346FFE718460837BD4680BD80B483B0FD
:1050400000AF0346FB710C4BFA7992B29A8000BF15
:10505000094B1B889BB203F04003002BF8D0064A93
:10506000054B1B889BB223F040039BB2138000BF0B
:105070000C37BD4680BC70470038014080B584B015
:1050800000AF78607868FBF76DF80346BB730023C8
:10509000FB7309E0FB7B7A6813441B781846FFF723
:1050A000CDFFFB7B0133FB73FA7BBB7B9A42F1D9CB
:1050B00000BF1037BD4680BD90B585B000AF7860A9
:1050C0007923FB735323BB7300237B730023BB60E3
:1050D00000BF4FF40031786800F058FB0346002B06
:1050E000F7D10121786800F0A5FA0121786800F075
:1050F00061FA00BF5649786800F048FB0346002B70
:10510000F8D000228021786800F0D2FA00BF51491F
:10511000786800F00BFB0346002BF8D0E321786899
:1051200000F0A8FA00BF4C49786800F0FFFA034687
:10513000002BF8D00121786800F03CFA00BF444908
:10514000786800F023FB0346002BF8D00122802171
:10515000786800F0ADFA00BF4049786800F0E6FAE0
:105160000346002BF8D000BF3D49786800F0DEFA16
:105170000346002BF8D0786800F08CFA0346FB73E6
:1051800000BF3749786800F0D1FA0346002BF8D009
:10519000786800F07FFA0346BB7300BF3049786837
:1051A00000F0C4FA0346002BF8D0786800F072FAD9
:1051B00003467B734FF2FF71786800F097FA002185
:1051C000786800F037FA0121786800F013FA00BF20
:1051D0002449786800F0DAFA0346002BF8D101215F
:1051E000786800F027FAFB7B1A02BB7B1344BB6094
:1051F000B868FBF72DFD03464FF08F411846FBF7CB
:1052000033FE03461846FBF719F90DA3D3E9002333
:10521000FBF768F903460C46184621460AA3D3E972
:105220000023FAF7ABFF03460C4618462146FBF76E
:1052300009FC034618461437BD4690BDAFF3008005
:10524000D7A3703D0AF76540CDCCCCCCCC6C4740A1
:105250000100001082000700840007000200030024
:10526000400003001000001080B584B000AF7860EB
:105270000023FB730023BB7300237B730023BB60FD
:1052800000BF4FF40031786800F080FA0346002B2D
:10529000F7D10121786800F0CDF90121786800F09C
:1052A00089F900BF4A49786800F070FA0346002B7C
:1052B000F8D000228021786800F0FAF900BF454953
:1052C000786800F033FA0346002BF8D0E5217868BF
:1052D00000F0D0F900BF4049786800F027FA034693
:1052E000002BF8D00121786800F064F900BF38493C
:1052F000786800F04BFA0346002BF8D00122802199
:10530000786800F0D5F900BF3449786800F00EFAEB
:105310000346002BF8D000BF3149786800F006FA48
:105320000346002BF8D0786800F0B4F90346FB730D
:1053300000BF2B49786800F0F9F90346002BF8D03C
:10534000786800F0A7F90346BB7300BF244978686A
:1053500000F0ECF90346002BF8D0786800F09AF9D9
:1053600003467B734FF2FF71786800F0BFF90021AC
:10537000786800F05FF90121786800F03BF900BF20
:105380001849786800F002FA0346002BF8D1012191
:10539000786800F04FF9FB7B1A02BB7B1344BB60BB
:1053A000B868FBF755FC03464FF08F411846FBF7F2
:1053B0005BFD03460C491846FBF7A2FC03460B496C
:1053C0001846FBF793FB034618461037BD4680BDD1
:1053D00001000010820007008400070002000300A3
:1053E00040000300100000100000FA420000C0401E
:1053F00080B58AB000AF786039600023FB84002359
:105400007B840423BB84574BFB617B689B88FB84B4
:10541000FB8C23F03F03FB8407F10803184600F0E0
:10542000E7F93B69FB61FB694F4AA2FB03239B0C35
:105430007B84FA8C7B8C1343FB847B68FA8C9A8088
:105440007B681B889BB223F001039AB27B681A80A9
:105450000023FB843B681B68444A934215D83B6891
:105460001B685B00FA69B2FBF3F3BB84BB8C032BB4
:1054700001D80423BB84FA8CBB8C1343FB847B8C44
:1054800001339AB27B681A8440E03B68DB884BF6B4
:10549000FF72934209D13B681A6813465B001344BC
:1054A000FA69B2FBF3F3BB840EE03B681A6813465B
:1054B0009B0013449A001344FA69B2FBF3F3BB84D4
:1054C000BB8C43F48043BB84BB8CC3F30B03002B26
:1054D00003D1BB8C43F00103BB84BA8CFB8C134318
:1054E0009BB26FEA43436FEA5343FB847B8C4FF4D8
:1054F000967202FB03F31E4A82FB03129211DB1722
:10550000D31A9BB201339AB27B681A847B68FA8CF7
:105510009A837B681B889BB243F001039AB27B6835
:105520001A807B681B88FB84FB8C23F4816323F047
:105530000203FB843B689A883B685B8913439AB2F9
:10554000FB8C1343FB847B68FA8C1A803B689A8936
:105550003B681B8913439AB27B681A8100BF2837C6
:10556000BD4680BD00127A0083DE1B43A086010089
:10557000D34D621080B483B000AF78600B46FB70EF
:10558000FB78002B08D07B681B889BB243F001039B
:105590009AB27B681A8007E07B681B889BB223F075
:1055A00001039AB27B681A8000BF0C37BD4680BCED
:1055B000704700BF80B483B000AF78600B46FB70CB
:1055C000FB78002B08D07B681B889BB243F4807368
:1055D0009AB27B681A8007E07B681B889BB223F431
:1055E00080739AB27B681A8000BF0C37BD4680BCBE
:1055F000704700BF80B483B000AF78600B46FB708B
:10560000FB78002B08D07B681B889BB243F40073A7
:105610009AB27B681A8007E07B681B889BB223F4F0
:1056200000739AB27B681A8000BF0C37BD4680BCFD
:10563000704700BF80B483B000AF78600B46FB704A
:10564000FB78002B08D07B681B889BB243F48063F7
:105650009AB27B681A8007E07B681B889BB223F4B0
:1056600080639AB27B681A8000BF0C37BD4680BC4D
:10567000704700BF80B483B000AF78600B46FB700A
:10568000FB789AB27B681A8200BF0C37BD4680BC9B
:10569000704700BF80B483B000AF78607B681B8A1E
:1056A0009BB2DBB218460C37BD4680BC704700BFCA
:1056B00080B483B000AF78600B46FB701346BB70BC
:1056C000BB78002B04D0FB7843F00103FB7003E0B0
:1056D000FB7823F00103FB70FB789AB27B681A8297
:1056E00000BF0C37BD4680BC704700BF80B483B09C
:1056F00000AF78600B467B807B88B3F5006F08D1E4
:105700007B681B889BB243F400639AB27B681A8063
:1057100007E07B681B889BB223F400639AB27B6826
:105720001A8000BF0C37BD4680BC704780B487B07C
:1057300000AF7860396000233B610023FB600023E9
:10574000BB600023FB757B689B8A9BB2FB607B6818
:105750001B8B9BB2BB60BB681B04BB60FA68BB6859
:10576000134323F07F433B613A693B681A403B682F
:105770009A4202D10123FB7501E00023FB75FB7DFA
:1057800018461C37BD4680BC704700BF80B487B048
:1057900000AF786039600023FB7500233B61002374
:1057A000FB607B68FB603B681B0F3B613B6823F041
:1057B0007F433B603B69002B03D0FB681433FB60E5
:1057C00005E03B681B0C3B60FB681833FB60FB6823
:1057D0001A683B681340002B02D00123FB7501E0DF
:1057E0000023FB75FB7D18461C37BD4680BC704707
:1057F00080B487B000AF786000237B6100233B61F9
:105800000023FB600023BB604C4B5B6803F00C0380
:105810007B617B69042B07D0082B09D0002B33D187
:105820007B68474A1A6033E07B68454A1A602FE07C
:10583000424B5B6803F470133B61404B5B6803F4BD
:105840008033FB603B699B0C02333B61FB68002BA0
:1058500006D13B693B4A02FB03F27B681A6017E002
:10586000364B5B6803F40033002B06D03B69354AA6
:1058700002FB03F27B681A600AE03B69304A02FBD4
:1058800003F27B681A6003E07B682D4A1A6000BF50
:105890002A4B5B6803F0F0037B617B691B097B612A
:1058A000294A7B6913441B78DBB2BB607B681A68AA
:1058B000BB68DA407B685A60204B5B6803F4E063A6
:1058C0007B617B691B0A7B611F4A7B6913441B78E0
:1058D000DBB2BB607B685A68BB68DA407B689A6061
:1058E000164B5B6803F460537B617B69DB0A7B6169
:1058F000154A7B6913441B78DBB2BB607B685A682E
:10590000BB68DA407B68DA600C4B5B6803F44043A9
:105910007B617B699B0B7B610C4A7B6913441B7821
:10592000DBB2BB607B68DA68BB68B2FBF3F27B6812
:105930001A6100BF1C37BD4680BC70470010024092
:1059400000127A0000093D00000000201000002035
:1059500080B483B000AF78600B467B807B88DB43EC
:105960009AB27B681A8200BF0C37BD4680BC704774
:1059700080B58CB000AF786039600023FB620023F3
:10598000BB6200237B6200233B620023FB617B68D8
:10599000FB617B681B8A9BB2FB62FA6A4CF6FF7361
:1059A0001340FB623B68DB881A46FB6A1343FB62C9
:1059B000FB6A9AB27B681A827B689B899BB2FB6206
:1059C000FA6A4EF6F3131340FB623B689A883B6811
:1059D0001B8913439AB23B685B8913439BB21A46F7
:1059E000FB6A1343FB62FB6A9AB27B689A817B680D
:1059F0009B8A9BB2FB62FA6A4FF6FF431340FB623D
:105A00003B689B891A46FB6A1343FB62FB6A9AB2A6
:105A10007B689A8207F108031846FFF7E9FEFB69E5
:105A20002E4A934202D17B69BB6201E03B69BB62B3
:105A30007B689B899BB21BB2002B0CDABA6A1346B7
:105A40009B0013449A001A443B681B685B00B2FB3E
:105A5000F3F37B620BE0BA6A13469B0013449A008F
:105A60001A443B681B689B00B2FBF3F37B627B6AC2
:105A70001B4AA2FB03235B091B01FB62FB6A1B0998
:105A8000642202FB03F37A6AD31A3B627B689B8928
:105A90009BB21BB2002B0CDA3B6ADB003233104A9C
:105AA000A2FB03235B0903F00703FA6A1343FB62BB
:105AB0000BE03B6A1B013233094AA2FB03235B095B
:105AC00003F00F03FA6A1343FB62FB6A9AB27B6826
:105AD0001A8100BF3037BD4680BD00BF003801408D
